:400000000080002011000000310500003105000080B500AF024A034B1B68136000F0BAFABC760040FA46004010B5054C237833B9044B13B10448AFF300800123237010BDF7
:400040006881FF1F0000000030330000084B10B51BB108490848AFF300800848036803B910BD074B002BFBD0BDE81040184700BF000000006C81FF1F30330000C880FF1FFC
:400080000000000098B500AF0E4B1C6800F094FB0346E31A0C4A127813440C4A13600B4B1B685B08094A1360094B1B7800F060FB084B1B78DBB20133DAB2064B1A7000BFA1
:4000C00098BD00BFCC80FF1FD080FF1F8881FF1F636400409C81FF1F80B500AF62B62E4800F0A0FB0121002000F0EAFB00BF00F08BFD0346002BFAD000F018FB274B1B682A
:400100001A462749274802F0EFFC264800F0C4FE642002F057FB214B1B6864331F4A136000F032FB03461A461F491E4802F0DCFC1C4800F0B1FE642002F044FB174B1B685E
:400140006433164A1360194B1B681A461849154802F0CAFC134800F09FFE642002F032FB0E4B1B6864330D4A1360124B1B78DBB21A4611490B4802F0B7FC0A4800F08CFE95
:4001800041F2883002F01EFB044B1B6803F59C530833024A1360B1E7850000008481FF1F34330000A081FF1F483300008881FF1F583300009C81FF1F7033000080B582B03E
:4001C00000AF786039603A680021786802F083FC00BF0837BD4680BD80B584B000AFF860B9607A607A68B968F86802F069FC00BF1037BD4680BD00BF80B584B000AFF860FB
:40020000B9607A607A68B968F86802F059FC00BF1037BD4680BD00BF80B483B000AF0346FB71FEE780B487B000AF7860396000233B6100237B6127E07B699B007A68134464
:400240001B68BB60BB68FB73BB6823F0FF03BB6014E03B695B003A6813441B781A46BB68134419463B695B003A6813445B780B703B6901333B61FB7B013BFB73FB7B002BC9
:40028000E7D17B6901337B617B69192BD4D900BF1C37BD4680BC704780B582B000AF334B00221A80324B58221A70324B0B221A80314B18221A70314B06221A70304B522243
:4002C0001A70304B304A1278D2B21A702F4B4FF4E1621A802E4B41F251221A800023FB7019237B6014E0FB785B00DAB2294B1B78DBB203F00103DBB21343DBB203F00303AD
:40030000FB704FF4F07002F043FB7B68013B7B607B68002B02D0FB78032BE4D17B68002B02D10320FFF778FF1B4B4FF480721A80194B07221A70194B00221A70184B4822B5
:400340001A70154B00221A70164B00221A70164B02221A70154A154B1B78DBB243F00303DBB2137000BF0837BD4680BD8040004082400040844000408640004000430040D6
:4003800000420040A14600400F0100492242004020420040254200400440004006400040084000400940004001400040A243004080B483B000AF0B4B1B78FB710A4AFB795A
:4003C00003F00703DBB21370084AFB791B09DBB21370074B44221A7000BF0C37BD4680BC704700BFCF0100496E5800406F5800407658004080B582B000AF72B6394A394B84
:400400001B78DBB243F00403DBB213700023FB7113E0FA7913465B0013445B00324A13443B603B681A683B689B889BB219461046FFF7C4FEFB790133FB71FB79062BE8D96A
:400440002A492B48FFF7EEFE2A4B2B4A1A602B4A2A4B1B78DBB243F00203DBB21370284A274B1B78DBB243F00203DBB21370254A244B1B78DBB243F04003DBB21370224AC2
:40048000214B1B78DBB243F01003DBB2137008221E491F48FFF7B0FE0A221E491E48FFF7ABFE08221D491E48FFF7A6FE1D4A1D4B1B78DBB243F00803DBB213701A4B602272
:4004C0001A70FFF7E9FE184B80221A70FFF770FF0E220C491548FFF77FFE00BF0837BD4680BD00BFE84600408033000014340000AC330000D802014000040B4B03500140FE
:4005000013500140A0430040C2430040603600000251004068360000F051004074360000125100402243004000480040B043004080B500AF02F098FA03461B680C2B00D17E
:40054000FEE7FEE780B584B000AF78600F4B1A687B6813441A460E4BD31A802B09DC0B4B1B68FB60094B1A687B681344074A136007E002F079FA02460C2313604FF0FF33C6
:40058000FB60FB6818461037BD4680BDD480FF1FE082FF1F80B586B000AF224B7B61224B3B61204B7B6135E03B691B68FB603B695B68BB603B699B683B6000237B600CE0AE
:4005C000FB681A68BB681A60BB680433BB60FB680433FB607B6804337B607A683B689A42EED13B69DB683B6000237B6008E0BB6800221A60BB680433BB607B6804337B6069
:400600007A683B689A42F2D13B6910333B617B69013B7B617B69002BC6D102F02BFAFFF75BFDFEE7010000004C38000080B582B000AF184B184A1A60184A184B1B6843F4CE
:400640000073136000237B600FE07B68032B04D8134A7B6852F8233000E0124B12497A6841F822307B6801337B607B682F2BECD90E4B1B78DAB20E4B1A700E4B0A4A1A6062
:40068000FFF7B8FE0C4B00221A6000BF0837BD4680BD00BF0CED00E00004FA0514ED00E000000000310500000080FF1FBC760040C480FF1F08ED00E0C080FF1F80B582B09F
:4006C00000AF4FF0FF3000F069F84FF0FF3000F07DF802F07CF90346FB710B4A0A4B1B78DBB243F01003DBB21370FB79184602F072F900F079F800F087F8002000F028F84E
:4007000000BF0837BD4680BD9364004080B400AF054A054B1B78DBB263F07F03DBB2137000BFBD4680BC70477064004080B500AF064B1B78002B04D1FFF7C0FF034B012206
:400740001A70FFF7E3FF00BF80BD00BF8C81FF1F80B483B000AF0346FB71044AFB79137000BF0C37BD4680BC704700BF8364004080B400AF034B1B78DBB21846BD4680BC55
:40078000704700BF6364004080B400AF024B1B681846BD4680BC70472064004080B483B000AF7860034A7B68136000BF0C37BD4680BC70472064004080B400AF024B1B68F1
:4007C0001846BD4680BC70474064004080B483B000AF7860034A7B68136000BF0C37BD4680BC70470064004080B400AF054A054B1B78DBB243F01003DBB2137000BFBD46DA
:4008000080BC70477064004080B500AF01E0FFF7D3FFFFF7ADFF034603F00803002BF6D100BF80BD80B582B000AF786000F03CF8786800F009F8072000F018F800F028F833
:4008400000BF0837BD4680BD80B485B000AF7860054B1B68FB60FB6840337A681A6000BF1437BD4680BC704708ED00E080B483B000AF0346FB71054AFB795B01DBB213701B
:4008800000BF0C37BD4680BC704700BF00E400E080B400AF034B01221A6000BFBD4680BC704700BF00E100E080B400AF034B01221A6000BFBD4680BC704700BF80E100E037
:4008C00080B582B000AF03460A46FB711346BB71094B1B78002B04D100F010F8064B01221A70BA79FB791146184600F0D9F800BF0837BD4680BD00BF8D81FF1F80B582B0CE
:4009000000AF02F064F80346FB71544A534B1B78DBB243F00103DBB21370514A504B1B78DBB243F00103DBB213704E4B01221A704D4B02221A704D4A4C4B1B78DBB203F0F8
:400940007F03DBB21370002001F05EFF484A484B1B78DBB223F00603DBB21370454A454B1B78DBB223F02003DBB21370404A404B1B78DBB243F00103DBB21370012001F0F3
:4009800043FF282001F040FF3B4A3B4B1B78DBB203F07F03DBB21370374A374B1B78DBB223F04003DBB21370314A314B1B78DBB243F00203DBB21370022001F025FF2C4A38
:4009C0002B4B1B78DBB243F00403DBB213702B4B00221A702A4B00221A70FB79184601F0FAFF0721172001F04BFF2649172001F01FFF0721182001F043FF2349182001F0A1
:400A000017FF0721152001F03BFF2049152001F00FFF0721012001F033FF1D49012001F007FF0721022001F02BFF1A49022001F0FFFE0721032001F023FF1749032001F0E7
:400A4000F7FE07210C2001F01BFF14490C2001F0EFFE00BF0837BD4680BD00BFA5430040B54300409D60004009600040106000409443004012600040F85100408460004052
:400A8000856000401D17000005100000111700002916000071160000BD1600002917000080B582B000AF03460A46FB711346BB712E4AFB7913702E4B00221A702D4B0022F9
:400AC0001A702D4B00221A702C4B00221A702C4B00221A702B4B00221A702B4B00221A702A4B4FF400021A60284B4FF080721A60264B4FF400121A60244B02221A60234BB1
:400B000004221A60214B08221A60BB79002B02D0012B09D011E01E4A1D4B1B78DBB223F00103DBB2137011E0194A194B1B78DBB243F00103DBB2137008E0154A144B1B786F
:400B4000DBB243F00103DBB2137000BF114B03221A70114B80221A70012001F019FF0F4B04221A7000BF0837BD4680BD1D82FF1F2082FF1F3C82FF1F3F82FF1F3482FF1FD1
:400B80003E82FF1F4182FF1F1C82FF1F00E100E00960004028600040086000401260004080B400AF0F4B00221A700F4B00221A700E4B00221A700E4B00221A700D4B0022BB
:400BC0001A700D4B00221A700C4B00221A700C4B03221A700B4B80221A7000BFBD4680BC704700BF2082FF1F3C82FF1F3F82FF1F3482FF1F3E82FF1F4182FF1F1C82FF1F9E
:400C0000286000400860004080B400AF034B1B78DBB21846BD4680BC704700BF3F82FF1FB0B485B000AF03463960FB711346BB80FB79002B6DD0FB79082B6AD8B988FA795E
:400C4000364813465B0013449B00034406331B889BB2C3F5007399420CD9FA792F4913465B0013449B000B4406331B889BB2C3F50073BB802A4CF979BB881B0A9BB2D8B25F
:400C8000FA79264D13465B0013449B002B4403331B78DBB20343DAB20B0123441A70204AFB79B988C9B21B01134401330A461A703B68002B13D00023FB810CE01948FB79E8
:400CC000FA8939680A4412781B01034408331A70FB890133FB81FA89BB889A42EED3FA790E4913465B0013449B000B44013300221A700B48F979FA79084C13465B00134403
:400D00009B00234405331B78DAB20B01034402331A7000BF1437BD46B0BC70474482FF1FFC5F00407060004080B582B000AF0023FB71314B1B79DBB2184600F067F8034651
:400D4000BB712D4B1B78DBB25BB2002B15DA2A4B5B78DBB2212B00D048E0284B07221A80BA791346DB009B1A254A1344234A536000F0C2FA0346FB7138E01F4B5B78DBB2F4
:400D8000202B02D0222B1AD030E01C4B07221A80BA791346DB009B1A194A1344174A5360BB79BA7917498A5CD2B242F00102D1B2144AD15400F01EFB0346FB7116E0BB7967
:400DC0000D4A9278D2B291B20F4A22F81310BB79BA790C498A5CD2B242F00202D1B2094AD15400F0A5FB0346FB7100BFFB7918460837BD4680BD00BF006000402882FF1F62
:400E0000D880FF1F0482FF1F1882FF1F80B485B000AF0346FB710023FB73FF23BB7317E0FB7B104AD35C7B737A7B0F4913465B0013449B000B440A331B78DBB2FA799A4260
:400E400003D1FB7BBB730223FB73FB7B0133FB73FB7B012BE4D9BB7B18461437BD4680BC704700BF0C82FF1F4482FF1F80B485B000AF78600023FB8102E0FB890133FB8127
:400E8000FB897A6813441B78002BF6D1FB8918461437BD4680BC704780B584B000AF78600023BB81304B1B781A46304B9B5CFB727868FFF7DBFF0346FB81FA7A2C4913467A
:400EC0005B0013449B000B4408331B889BB2FA899A420AD9FA7A264913465B0013449B000B4408331B889BB200E0FB893B81BB897A68D1183A89FB7A1846FFF791FEFA8919
:400F00003B89D31AFB81FB89002B0CD1FA7A184913465B0013449B000B4408331B889BB23A899A4219D1BA893B891344BB8100BFFA7A0F4913465B0013449B000B4401332C
:400F40001B78DBB2002BF3D0FB89002B05D1FB7A002200211846FFF763FEFB89002BACD100BF1037BD4680BD8E81FF1F0882FF1F4482FF1F80B485B000AF78600B46FB709A
:400F80001346BB707B68DB7803F00303FB737B689B785BB2002B1ADAFB7B032B0AD0BB7803F001031449FA78CA54BB7843F00103BB701BE0BB789B08DBB203F001030F4917
:400FC000FA78CA54BB7843F00403BB700EE0FB7B032B0BD0BB785B08DBB203F001030849FA78CA54BB7843F00203BB70BB7818461437BD4680BC70470882FF1F0C82FF1FA5
:401000001082FF1F80B582B000AF374B1B78BB71BB7903F01003002B62D00123FB7197F90630002B12DABB7903F00F03012B02D00023FB711CE000F061F82C4B1B78DBB203
:401040005BB2002B14DA0023FB7111E0BB7903F04003002B02D000F095F809E0BB7903F02003002B02D000F0B3F801E00023FB71FB79002B34D01C4B1B78BB7197F906301C
:40108000002B2DDB1A4B1B78DAB21A4B1B78DBB21343BB71184ABB791370174B1B78DBB2BA799A421CD1114B1B78FB710E4B1B78DBB223F07F03BB71BB79002B0AD10A4BB7
:4010C0000A4A1278D2B21A70074B1B78DBB203F00F03FB71054B1B78DBB2FA799A42E2D100BF0837BD4680BD286000403D82FF1FB282FF1F4082FF1F2960004080B582B06A
:4011000000AF1D4B1B78FB711B4AFB7913701A4B1B78FB7197F90730002B03DA174AFB79137025E0022000F045FA154B1B78DBB203F06003202B08D0402B0BD0002B0ED113
:4011400000F0F8FA0346FB710CE001F04BFC0346FB7107E001F000FB0346FB7102E00023FB7100BFFB79002B02D1044B03221A7000BF0837BD4680BD286000403D82FF1FF4
:401180000060004080B500AF104B1B78DBB2062B19D801A252F823F0C7110000C7110000B5110000C7110000BB110000C7110000C111000000F0F8F806E000F0A7F903E011
:4011C00000F0D2F900E000BF00BF80BD2082FF1F80B500AF124B1B78DBB2062B1DD801A252F823F01B1200001B120000011200001B120000071200001B1200000D12000053
:4012000000F0D8F80AE000F027F907E0032000F0D1F9044B03221A7000E000BF00BF80BD2082FF1F3D82FF1F80B483B000AF0023FB71294B1B78DBB29AB2284B1B889BB212
:4012400013449AB2254B1A8015E02549FB79254A52681278D2B2CA54224B5B680133214A5360FB790133FB711E4B1B889BB2013B9AB21C4B1A801B4B1B889BB2002B02D0CA
:40128000FB79072BE1D9144B1B78DBB2082B02D0FB79002B0FD0144B1B78DBB283F07F03DB43DAB2104B1A70104B0F221A70104B02221A7005E00D4B02221A700C4B022244
:4012C0001A700C4AFB791370034AFB79137000BF0C37BD4680BC70471C82FF1F1E82FF1F006000402882FF1FB282FF1F3D82FF1F2082FF1F4082FF1F80B582B000AF164BB3
:401300001B889BB2002B02D100F02EF81EE0134B02221A70124B00221A7000F06BF9114BDB79DBB29BB21B029AB20E4B9B79DBB29BB21343FB80084B1B889BB2FA889A4296
:4013400002D2054AFB881380FFF76EFF012318460837BD4680BD00BF2882FF1F2082FF1FB282FF1F0060004080B400AF094B02221A70094B80221A70084B0F221A70084BD1
:4013800000221A70074B00221A7001231846BD4680BC70472082FF1FB282FF1F3D82FF1F1C82FF1F4082FF1F80B500AFFFF73CFF00BF80BD80B500AF0A4B1B78DBB29AB2CA
:4013C000094B1B889BB213449AB2074B1A80074B00221A70012000F0EDF8054B03221A7000BF80BD1C82FF1F1E82FF1F2082FF1F3D82FF1F80B582B000AF124B04221A70F1
:40140000114B80221A7000F0F5F8104BDB79DBB29BB21B029AB20D4B9B79DBB29BB21343FB800B4B1B889BB2FA889A4202D2084AFB881380074B0B221A7001231846083794
:40144000BD4680BD2082FF1FB282FF1F006000402882FF1F3D82FF1F80B483B000AF0023BB71234B1B78DBB203F00F03DBB2023BFB71FB799AB21F4B1B889BB213449AB2EA
:401480001C4B1A8018E01C4B5B681C49BA798A5CD2B21A70184B5B680133174A5360BB790133BB71FB79013BFB71134B1B889BB2013B9AB2104B1A800F4B1B889BB2002B1F
:4014C00002D0FB79002BDED10D4AFB7913700D4B1B78DBB283F07F03DB43DAB2094B1A70094B0B221A7000BF0C37BD4680BC7047296000401E82FF1F2882FF1F0060004097
:401500004082FF1FB282FF1F3D82FF1F80B500AF054B00221A70012000F04CF8034B03221A7000BF80BD00BF2082FF1F3D82FF1F80B400AF084B06221A70084B06221A7025
:40154000074B80221A70074B00221A7001231846BD4680BC704700BF2082FF1F3D82FF1FB282FF1F4082FF1F80B500AF0D4B1B78DBB2002B0AD00C4A0A4B1B78DBB263F06A
:401580007F03DBB21370074B00221A70074B00221A70012000F00EF8054B03221A7000BF80BD00BF3E82FF1F086000402082FF1F3D82FF1F80B483B000AF0346FB710B4B88
:4015C0009B68002B0CD0094B9B68FA791A70074B9B68074A128892B25A80044B00229A6000BF0C37BD4680BC704700BF2882FF1F1E82FF1F80B400AF094B00221A80094B40
:401600009B68002B07D0074B9B6800221A70054B9B6800225A8000BFBD4680BC704700BF1E82FF1F2882FF1F80B400AF0D4B01221A700D4B9B7C0D4B1B7BDBB203F0030390
:40164000012B08D0094BDB7BDBB283F07F03DB43DAB2064BDA73054B01225A7300BFBD4680BC70470B600040FC5F00404482FF1F80B400AF0E4B02221A700E4B93F82230B3
:401680000D4B1B7EDBB203F00303012B08D00A4BDB7EDBB283F07F03DB43DAB2064BDA76054B01225A7600BFBD4680BC704700BF0B600040FC5F00404482FF1F80B400AF70
:4016C000104B04221A70104B93F832300F4B93F82430DBB203F00303012B0AD00B4B93F82730DBB283F07F03DB43DAB2074B83F82720064B012283F8252000BFBD4680BC28
:40170000704700BF0B600040FC5F00404482FF1F80B400AF00BFBD4680BC704780B500AFFFF73EFA00BF80BD80B500AF01F02EF800BF80BD80B586B000AF0023FB75B04BC4
:401740001B78FB7100233B61AE4B00221A8097F90730002B80F2FD80A94B5B78DBB20A2B00F2168201A252F823F000BFA9180000911B0000911B0000911B0000911B0000D2
:40178000911B000099170000911B00001D190000911B000033190000994BDB78DBB2012B0ED100F049FEB860BB685B68954A5360944B12221A80FFF79FFD0346FB75E9E19B
:4017C0008F4BDB78DBB2022B25D18D4B9B78DBB2184600F009FEB860BB68002B00F0DA81BB685B68874A5360864B5B6803331B78DBB29BB21B029AB2824B5B6802331B782C
:40180000DBB29BB213439AB27E4B1A80FFF774FD0346FB75BEE17A4BDB78DBB2032B3ED10023FB73784B3B6109E03B691B78BB71BB793A6913443B61FB7B0133FB73704B4F
:401840009B78DBB2FA7B9A4204D23B691B78DBB2002BEAD16A4B9B78DBB2002B0BD0684B9B78DAB2694B1B7C9A4204D1684800F0ABF9674B3B613B691B78DBB2002B00F0DD
:4018800089813B691B78DBB29AB25E4B1A805D4A3B695360FFF730FD0346FB757AE101F0A1F80346FB7575E1FB7903F00303002B20D0022B00D030E0524B02221A80504B72
:4018C0001B79DBB203F07F02524913465B0013449B000B4402331B78DAB24F4B1A704E4B00225A70474B4C4A5A60FFF705FD0346FB7512E0434B02221A80484B1B78DAB243
:40190000454B1A70444B00225A703E4B424A5A60FFF7F2FC0346FB7500BF42E1394B01221A80384B3E4A5A60FFF7E6FC0346FB7537E1344B01221A80314B1B79DBB21A46DC
:40194000384B13442F4A5360FFF7D6FC0346FB7527E12B4B5B78DBB2013B0A2B00F21C8101A252F823F000BF751A0000991B0000031B0000991B000095190000991B0000CC
:40198000991B0000991B0000A9190000991B0000311A00001A4B9B78DAB2234B1A70FFF7C7FD0346FB75FCE0154B9B787B717B79002B06D07B79013BDBB2184600F014FD43
:4019C000B8607B79002B02D0BB68002B03D17B79002B40F0E380124B1B78DBB27A799A4208D00F4A7B791370104B01221A70012000F0F2F9FFF79CFD0346FB75CEE000BF5D
:401A0000006000402882FF1FE836000090360000B882FF1F4482FF1F9081FF1F4182FF1F3F82FF1FB082FF1F3E82FF1F3C82FF1F00F05AFE0346002B00F0B2805B4B1B790D
:401A40003B715A4B1B79DAB2594B1A703B79594AD35CDAB23B795849CB5CDBB29A4204D0564B01221A7000F091FBFFF761FD0346FB7595E0FB7903F00303012B20D0012BFB
:401A80000CD3022B00D03BE0484B9B78DBB2002B31D100F07DFD0346FB752CE0434B9B78DBB2012B29D1464B1B78DBB223F00203DAB2434B1A70FFF73BFD0346FB751CE0FC
:401AC0003A4B1B79DBB2012B19D8384B9B78DBB2DB43DBB2354A1279D2B211461046394A125CD2B21340DAB2364B5A54FFF720FD0346FB7503E000BF53E000BF51E000BF47
:401B00004FE0FB7903F00303012B20D0012B0CD3022B00D03BE0254B9B78DBB2002B31D100F0C2FC0346FB752CE0204B9B78DBB2012B29D1224B1B78DBB243F00203DAB298
:401B40001F4B1A70FFF7F4FC0346FB751CE0174B1B79DBB2012B19D8144B9B78DBB2DB43DBB2124A1279D2B211461046154A125CD2B21340DAB2134B5A54FFF7D9FC034624
:401B8000FB7503E000BF0CE000BF0AE000BF08E000BF06E000BF04E000BF02E000BF00E000BFFB7D18461837BD4680BD006000403482FF1F2482FF1FB082FF1F3C82FF1FC7
:401BC0004182FF1FB482FF1FB0B58AB000AF7860324B07F114041D460FCD0FC42B682370002387F826307B68002B52D07B6822221A707B68013303221A7007F10C031846C1
:401C000000F062FE022387F827303EE097F827307A68134497F8262007F128010A4412F81C2C1209D2B207F128010A4412F8142C1A7097F8273001337A68134400221A70A5
:401C400097F8273002337A68134497F8262007F128010A4412F81C2C02F00F0207F128010A4412F8142C1A7097F8273003337A68134400221A7097F82630013387F8263045
:401C800097F82730043387F8273097F82730212BBCD900BF2837BD46B0BD00BF7C36000090B482B000AF0123FB7180E0464AFB791B0113440C221A70FA79444913465B0073
:401CC00013449B000B4405331B78DBB2002B1CD0FA793E4913465B0013449B000B4404331B78DBB25BB2002B07DA394AFB791B01134402330C221A700EE0354AFB791B0181
:401D00001344023308221A7006E0314AFB791B011344023380221A702B48F979FA792B4C13465B0013449B00234406331B889BB2DAB20B01034406331A702348F979FA79C3
:401D4000224C13465B0013449B00234406331B889BB21B0A9BB2DAB20B01034407331A701948F979FA79194C13465B0013449B00234406331B889BB2DAB20B0103440433B3
:401D80001A701148F979FA79104C13465B0013449B00234406331B889BB21B0A9BB2DAB20B01034405331A70FB790133FB71FB79082B7FF67BAF074BFF221A7000BF083761
:401DC000BD4690BC704700BF706000404482FF1FFC5F00400A60004080B58AB000AF0346FB7100237B84002387F8273050E097F82720B34913465B0013449B000B440022DE
:401E00001A7097F82720AE4913465B0013449B000B44023300221A7097F82720A84913465B0013449B000B44033300221A7097F82720A34913465B0013449B000B440833E5
:401E400000221A8097F827209D4913465B0013449B000B440A3300221A7097F82720984913465B0013449B000B44013300221A7097F82720924913465B0013449B000B44DA
:401E8000053300221A7097F82730013387F8273097F82730082BAAD9FB79002B16D0002387F825300EE097F82530864A0021D15497F82530844A0021D15497F8253001333E
:401EC00087F8253097F82530012BECD97F4B1B78DBB2002B00F051810023FB767B4B1B78DBB2013BDBB2184600F07EFA78617B695B683B613B6907331B7803F04003002B6B
:401F000008D0734B1B78DBB243F00103DAB2704B1A7007E06E4B1B78DBB223F00103DAB26B4B1A707B6908337B617B691B7887F82730012387F82530B6E07B695B68FB6167
:401F4000002387F82630A3E097F82520FB699B7803F07F039A4240F0938097F82520584913465B0013449B000B4408331B889AB2FB699B889A420CD297F82520FB699888DA
:401F80004F4913465B0013449B000B44083302461A80FB691B781A464A4B9B5CDAB2FB695B789A426CD197F82520FB699878444913465B0013449B000B44043302461A70E5
:401FC00097F82520FB69D8783D4913465B0013449B000B4402461A70FB69DB7803F00303FB73FB699B785BB2002B1CDA97F82520FB7B012B01D1072000E00D2030491346FB
:402000005B0013449B000B44053302461A7097F825202B4913465B0013449B000B44013301221A701BE097F82520FB7B012B01D1052000E00920224913465B0013449B005A
:402040000B44053302461A7097F825201C4913465B0013449B000B44013300221A70FB699B790A2B03D0FB699B79022B08D1FA7E97F825301946F869FEF77CFF0346FB76B5
:40208000FB690833FB6197F82630013387F8263097F8262097F827309A42FFF455AF97F82530013387F8253097F82530082B7FF644AF7B695B68FB61002387F8253020E044
:4020C0004482FF1FB082FF1F2482FF1F3F82FF1F4182FF1FFB699B7803F07F02FB691878284913465B0013449B000B440A3302461A70FB690833FB6197F82530013387F842
:40210000253097F8252097F827309A42E2D300F0A5F902461C4B1A6000237B84012387F8273024E097F82720164913465B0013449B000B4406337A8C1A8097F827201149F5
:4021400013465B0013449B000B4408331B889AB27B8C13447B847B8C03F001039AB27B8C13447B8497F82730013387F8273097F82730082BD6D9FFF793FD00BF2837BD46DD
:4021800080BD00BF4482FF1F3882FF1F90B585B000AF8F4B1B78DBB2002B00F015818C4B1B78DBB2013BDBB2184600F01DF978607B6808337B607B681B78FB707B685B6817
:4021C000BB60844B1B78BB700023FB73F7E0BB681B78BA789A4240F0EC80BB787E4AD35CDAB2BB685B789A4240F0E380BB689B7803F07F037B70BB68DB7803F003033B70A4
:402200007A78764913465B0013449B000B44033300221A707A78BB689878704913465B0013449B000B44043302461A707A78BB68D8786A4913465B0013449B000B440246E5
:402240001A707A78BB689888644913465B0013449B000B44083302461A80BB689B785BB2002B1ADA7A783B78012B01D1072000E00D205A4913465B0013449B000B440533D7
:4022800002461A707A78554913465B0013449B000B44013301221A7019E07A783B78012B01D1052000E009204C4913465B0013449B000B44053302461A707A7847491346AD
:4022C0005B0013449B000B44013300221A70444A7B781B011344023301221A70404879787A783E4C13465B0013449B00234408331B889BB21B0A9BB2DAB20B0103441A7084
:40230000374879787A78354C13465B0013449B00234408331B889BB2DAB20B01034401331A70304879787A782C4C13465B0013449B00234406331B889BB2DAB20B010344FD
:4023400006331A70274879787A78244C13465B0013449B00234406331B889BB21B0A9BB2DAB20B01034407331A701E4879787A781A4C13465B0013449B00234406331B88F5
:402380009BB2DAB20B01034404331A70154879787A78124C13465B0013449B00234406331B889BB21B0A9BB2DAB20B01034405331A70BB680833BB60FB7B0133FB73FA7B43
:4023C000FB789A42FFF403AF00BF1437BD4690BD3F82FF1F3482FF1FB082FF1F4482FF1FFC5F00407060004080B485B000AF0346FB710F4B1B78DBB20E4ADB0013445B6869
:40240000FB60FB681033FB60FB681B78FA799A4202D30023FB6005E0FB79DB00FA6813445B68FB60FB6818461437BD4680BC70471D82FF1FE837000080B400AF054B1B78F9
:40244000DBB2054ADB0013445B681846BD4680BC704700BF1D82FF1FE837000080B584B000AF104B1B78DBB2013BDBB21846FFF7BBFFB860BB68002B0DD0BB685B681B7975
:40248000FB71FB790233DB00BA681344BB60BB685B68FB6001E00023FB60FB6818461037BD4680BD3F82FF1F80B582B000AF0023FB71344B1B79DBB203F07F03BB71BB79B7
:4024C000002B5AD0BB79082B57D8BA79B9792E480B465B000B449B00034402331B78DBB243F00103D8B2284913465B0013449B000B44023302461A70BA79234913465B0063
:4025000013449B000B44033300221A70BA79B9791D480B465B000B449B00034401331B78DBB243F00203D8B2174913465B0013449B000B44013302461A70BA791249134679
:402540005B0013449B000B4404331B78DBB25BB2002B07DA0D4ABB791B01134402338D221A7006E0094ABB791B011344023389221A70FEF7DDFF0346FB71FB791846083702
:40258000BD4680BD006000404482FF1FFC5F004080B582B000AF0023FB71504B1B79DBB203F07F03BB71BB79002B00F09280BB79082B00F28E80BA79B97949480B465B0050
:4025C0000B449B00034402331B78DBB223F00103D8B2434913465B0013449B000B44023302461A70BA793E4913465B0013449B000B44033300221A703A49BB793948BA7930
:40260000120102441278D2B202F07F02D2B21B010B441A70BA79B97931480B465B000B449B00034401331B78DBB223F00203D8B22B4913465B0013449B000B4401330246B1
:402640001A70BA79264913465B0013449B000B4404331B78DBB25BB2002B1BDABA79204913465B0013449B000B4401331B78DBB2012B07D11B4ABB791B01134402330C225D
:402680001A7022E0174ABB791B01134402330D221A701AE0BA79124913465B0013449B000B4401331B78DBB2012B07D10D4ABB791B011344023308221A7006E0094ABB796F
:4026C0001B011344023309221A70FEF731FF0346FB71FB7918460837BD4680BD006000404482FF1FFC5F004080B584B000AF0023FB73154B1B79BB73144B1B78DBB2013BAD
:40270000DBB21846FFF770FEB860BB685B681B79FB71BA7BFB799A4202D9BB7B022B0ED8BB7BBA7B0A498A5CD1B20A4AD154BB7B054A9278D1B2064AD1540123FB73FB7B74
:4027400018461037BD4680BD006000403F82FF1FB082FF1F2482FF1F80B483B000AF0023FB71094B1B78DBB25BB2002B06DA064B5B78DBB2012B00D000E000BFFB79184692
:402780000C37BD4680BC70470060004080B400AF054B1B78DBB203F040039B09DBB21846BD4680BC704700BF8F45004080B483B000AF0346FB7101BE00BF0C37BD4680BC94
:4027C000704700BF80B582B000AF786008E00C4B1B68184600F0DCF87B68A3F500437B607B68B3F5004FF2D8064B1B687A6802FB03F3184600F0CCF800BF0837BD4680BD5B
:402800000081FF1FF880FF1F80B582B000AF0346FB80FB88054A127802FB03F3184600F0B7F800BF0837BD4680BD00BFFC80FF1F80B584B000AF03463960FB710F4B1B6863
:40284000FB60FB791F2B02D90020FFF7AFFFFB7903F01F0310339B00FA6813441B68BB60FB7903F01F0310339B00FA6813443A681A60BB6818461037BD4680BD08ED00E0C9
:4028800080B582B000AF03460A46FB711346BB71BB79072B02D90020FFF788FFFB791F2B02D90020FFF782FFFB7903F01F0303F1604303F56443BA795201D2B21A7000BF58
:4028C0000837BD4680BD00BF80B483B000AF7860264B1B78DBB21A467B681A60244B1B78DBB21B027A6812681A437B681A60214B1B78DBB21B047A6812681A437B681A60DB
:402900001D4B1B78DBB21B067A6812681A437B681A607B680433194A1278D2B21A60184B1B78DBB21A027B6804337968043109680A431A60134B1B78DBB21A047B68043316
:402940007968043109680A431A600F4B1B78DBB21A067B6804337968043109680A431A6000BF0C37BD4680BC704700BF0301004904010049EC4600400201004901010049AC
:4029800000010049050100490601004900000000142816D902B4012114381049097811F0C001890904B40E4A515C04BC00BF00BF00BF8841FDD500BF00BF02BC704700BFAA
:4029C00000BF70F10400FCD570470B050709EFF3108072B6704780F31088704700480040CA29000080B582B000AF0023BB711B4B1B78DBB203F00303012B02D0022B04D09A
:402A000012E0164B1B79FB7111E0144B1B79DBB203F07F02124913465B0013449B000B440A331B78FB7102E00023FB7100BFFB79022B0ED80B4B1A68FB7913441B78022BB8
:402A400004D1FEF771F90346BB7102E00023BB7100BFBB7918460837BD4680BD006000404482FF1F3882FF1F014B1868704700BF6481FF1F0E4B70B51E460E4C0025E41AAC
:402A8000A410A54204D056F8253098470135F8E700F0CAFE084B094C1E46E41AA4100025A54204D056F8253098470135F8E770BD3438000034380000343800003C3800003E
:402AC00010B5431E0A44914204D011F8014B03F8014FF8E710BD03460244934202D003F8011BFAE7704700000EB400B54FF402719CB0ADF814106FF00041049107914FF636
:402B0000FF711DAB02900690084853F8042BADF81610006802A9019300F064F8029B00221A701CB05DF804EB03B070476481FF1F2DE9F0478E6882469E420C4691469846F5
:402B40003ED88A8912F4906F3AD02568096902236F1A656905EB450595FBF3F57B1C43449D4238BF1D4653050FD5294600F040FB064698B13A462169FFF7A2FFA38923F44A
:402B8000906343F08003A38113E02A4600F08EFB064670B92169504600F0DEFA0C23CAF80030A3894FF0FF3043F04003A381BDE8F08726613E44266046466561ED1BA560B0
:402BC000464528BF464649463246206800F0A8FAA36800209B1BA36023681E442660BDE8F08700002DE9F04F9DB003938B8980461C060D4616460DD50B695BB9402100F0A5
:402C0000F7FA2860286118B90C23C8F80030CDE040236B610023099320238DF82930DFF89CB130238DF82A3037463C4614F8013B1BB9B7EB060910D003E0252BF9D027467B
:402C4000F3E74B46324629464046FFF771FF013000F0A780099B4B4409933B78002B00F0A08000234FF0FF3204930793059206938DF853301A930126052221784E4800F0FB
:402C800041FA671C049B38B14B4A3C46801A06FA00F018430490EFE7D90644BF20228DF853201A0744BF2B228DF8532022782A2A03D0079A00210A200BE0039A111D126806
:402CC0000391002A10DA524243F00200079204900BE027463B780134303B092B03D800FB02320121F5E701B107923B782E2B1ED17B782A2B0AD1039B02371A1D1B680392C0
:402D0000002BB8BF4FF0FF33059310E0002319460593781C0A2407463A780130303A092A03D804FB01210123F5E703B1059103223978224800F0E6F940B14023CBEB0000F0
:402D400003FA00F0049B013718430490397806221B487E1C8DF8281000F0D4F988B1194B33B9039B073323F007030833039314E003AB00932A46144B04A94046AFF30080A8
:402D800007E003AB00932A460F4B04A9404600F093F8B0F1FF3F824603D0099B5344099342E7AB895B0601D4099801E04FF0FF301DB0BDE8F08F00BFF2370000F837000097
:402DC000FC37000000000000312B00002DE9F04791461F460A698B6806469342B8BF1346C9F8003091F843200C46DDF8208012B10133C9F800302368990642BFD9F80030AC
:402E00000233C9F80030256815F0060510D104F1190A07E00123524639463046C04701301AD00135E368D9F800209B1A9D42F1DB94F843302268003318BF012392060FD517
:402E4000E118302081F843005A1C94F845102244023382F8431003E04FF0FF30BDE8F08704F1430239463046C0470130F4D02268D9F80050E36802F00602042A08BF5D1B99
:402E80002269A3680CBF25EAE57500259342C4BF9B1AED184FF000091A344D4509D00123224639463046C0470130D5D009F10109F3E70020BDE8F0872DE9F04317460A7E6A
:402EC00085B06E2A984606460C460C9B01F1430E00F0AE8011D8632A22D009D8002A00F0BB80582A40F0CA8081F84520834955E0642A1ED0692A1CD0C0E0732A00F0B080B0
:402F000009D86F2A2ED0702A40F0B8800A6842F020020A603EE0752A24D0782A3AD0ADE01A6801F14205111D1960136884F84230A8E021681A6811F0800F02D0111D196096
:402F400008E011F0400F02F10401196002D0B2F9003000E01368002B3CDA2D225B4284F8432037E021681A6811F0800F02D0111D196007E011F0400F02F10401196001D0F0
:402F8000138800E01368227E5C496F2A14BF0A2208221BE078225A4984F845202268186812F0800F00F104051D6003D1550601D5038800E00368D00744BF42F0200222605E
:402FC0001BB9226822F0200222601022002084F8430001E049490A226568002DA56008DB206820F0040020602BB9002D7DD175460CE0002B79D07546B3FBF2F002FB10330A
:40300000CB5C05F8013D03460028F5D1082A0BD12368DA0708D5236962689A42DEBF302305F8013C05F1FF35C5EB0E0323612EE008681A6810F0800F496903D0101D18601C
:40304000136808E010F0400F02F104001860136801D0198000E0196000232361754616E01A68111D1960156800216268284600F049F808B1401B6060636804E004F14205AA
:4030800084F8422001232361002384F84330CDF800803B4603AA21463046FFF797FE013002D14FF0FF3026E023692A4639463046C0470130F5D023689B0710D5002504F10B
:4030C000190907E001234A4639463046C0470130E7D00135E368039A9B1A9D42F2DBE068039B9842B8BF184605E00B7804F1420584F842308AE705B0BDE8F0830338000010
:403100001438000010B5C9B202449042034605D01C7801308C42F8D1184610BD002010BD884210B501EB020301D8421E0BE09842FBD28118D21AD34204D013F8014D01F84E
:40314000014DF8E710BD994204D011F8014B02F8014FF8E710BD000038B50546002944D051F8043C0C1F002BB8BFE41800F0D4F81E4A1368114613B96360146030E0A342A6
:403180000DD92268A018834201BF18685B681218226063600C6023E0A24203D813465A68002AF9D118681918A1420BD12168014458188242196013D11068526801441960B4
:4031C0005A600DE002D90C232B6009E021686018824201BF106852680918216062605C602846BDE8384000F098B838BD9881FF1F70B5CD1C25F0030508350C2D38BF0C2513
:40320000002D064601DBA94202D90C23336046E000F082F8234B1C681A462146A1B10B685B1B0ED40B2B03D90B60CC18CD501EE08C420BBF63684B681360636018BF0C465A
:4032400015E00C464968E9E7174C23681BB9304600F052F820602946304600F04DF8431C18D0C41C24F00304A0420DD12560304600F053F804F10B00231D20F00700C31A0E
:403280000ED05A42E25070BD211A304600F034F80130EBD10C233360304600F03EF8002070BD00BF9881FF1F9481FF1FF8B5074615460E4621B91146BDE8F840FFF798BFA3
:4032C0001AB9FFF749FF2846F8BD00F027F885420ED929463846FFF78BFF044650B131462A46FFF7EDFB31463846FFF735FF01E03046F8BD2046F8BD38B5064C002305466D
:4033000008462360FDF71EF9431C02D1236803B12B6038BDDC82FF1F7047704751F8040C0028BEBF091851F8043CC01804387047000000000A5672696A656D653A202025E8
:403340006C750D0A00000000506572696F643A2020256C750D0A0000636170747572656456616C75653A20256C750D0A00000000496E74436E743A2025640D0A0000000045
:40338000205100405000C0510040100000000140001000140140000800400140000A004C014000020050014020000000014500400252004002640040460001402701014082
:4033C0003602014028030140120401400D05014001070140010D0140010F01400317014001190140064001400B4101400742014001430140024401400245014002460140E4
:403400000547014006480140014C014003500140015101407E0200027C402417830F0008020203080E0D0F0B130B140617011B022101220F2304250328022A082E0F2F0885
:4034400030063208330434083503360137083E503F4040144103420649FF4AFF4BFF4F0150185290580B590B5A0B5B0B5F016040624064406540668068806A806C806E804A
:40348000C051C103C206C9FFCAFFCBFFCD83CE03CF01D018DA08DF01E040E240E440E540E680E880EA80EC80EE80004201020A1010821208184119141A1A1B06212022484B
:4034C00029062B023002312032083880390240014101421043044601470449104E0570C278017F01C009C204C40BCA0BCC07CE09D05BD234DE11E61040514103420649FFE3
:403500004AFF4BFF4D834E034F01501856085A085B045F016040624064406540668068806A806C806E8093029F01AB03B703C014C103C206C5ECC720C823C9FFCAFFCBFFA8
:40354000CD83CE03CF01D018D403D904DA0BDB0BDF05E040E240E440E540E680E880EA80EC80EE80200221802A10300231804001410143044601470449154E0551015201E0
:4035800059155A805F806401670278017B047F019001928A9502970299109B049C019E01A304A401CA04CC09D05BD234D61FD810DE15E20240654720482049FF4AFF4BFF1A
:4035C0005A045F0160806240634064406540668068806A806C806E8048014A0850029F80A001A208A402AA08AB04AE10B001D20CEA809F80E202E61087809F80EE02EE02F9
:4036000031203202364037048F04CCF00D020F805008512057208602A520A642C220D460E240A640A808AB40AD02B320E860EA80A6408F01E608840897019701A4080B41ED
:403640000C089701A408C20E23208720AE40C840E040EE40AF40000108010A0100AB000020230300030000004000000000000000C0000000000B0B00000000003031323320
:40368000343536373839414243444546000000001201000202000008B40432F201000102800100000902430002010180320904000001020201030524001001042402020529
:4036C0002406000105240100010705810308000A09040100020A000004070582024000000705030240000000040309042C03430079007000720065007300730020005300F4
:4037000065006D00690063006F006E0064007500630074006F007200100355005300420055004100520054003803430044004300200043006F006D006D0075006E00690047
:4037400063006100740069006F006E00200049006E007400650072006600610063006500260343004400430020004400610074006100200049006E00740065007200660005
:4037800061006300650000000203000000008103080002000100820240000A000100030240000A00020A000001000000A4360000030000008C370000000000000000000081
:4037C000000000000000000000000000A43700000100000090360000000000000000000001000000A837000001000000D03700004300232D302B2000686C4C00656667459A
:4038000046470030313233343536373839414243444546003031323334353637383961626364656600000000F8B500BFF8BC08BC9E4670474D0000002D060000F8B500BF8C
:40384000F8BC08BC9E4670472900000060380000C880FF1FA0000000780100000000000000000000FFFFFFFF02000000E082FF1F00C2010000000800C201000000080000E1
:40388000A1200000000002000000000000366E01C05D0000180000000000E02E0000000000000000000000000000000000000000000000000000000000000000F037000036
:4038C0000000000000000000000000000000000000000000000000000000000000000000000000000000000000000000000000000000000000000000000000000481FF1F25
:403900000000000000000000000000000000000000000000000000000000000000000000000000000000000000000000000000000000000000000000000000000000000087
:403940000000000000000000000000000000000000000000000000000000000000000000000000000000000000000000000000000000000000000000000000000000000047
:403980000000000000000000000000000000000000000000000000000000000000000000000000000000000000000000000000000000000000000000000000000000000007
:4039C00000000000000000000000000000000000000000000000000000000000000000000000000000000000000000000000000000000000000000000000000000000000C7
:0200000480007A
:0200000490006A
:0400000000004005B7
:0200000490105A
:04000000BC90ACAF55
:0200000490303A
:020000007D433E
:0200000490402A
:4000000000000000000000000000000000000000000000000000000000000000000000000000000000000000000000000000000000000000000000000000000000000000C0
:400040000000000000000000000000000000000000000000000000000000000000000000000000000000000000000000000000000000000000000000000000000000000080
:400080000000000000000000000000000000000000000000000000000000000000000000000000000000000000000000000000000000000000000000000000000000000040
:4000C0000000000000000000000000000000000000000000000000000000000000000000000000000000000000000000000000000000000000000000000000000000000000
:0200000490501A
:0C00000000012E16106900012E2A8DACA4
:00000001FF